:100000000C9462000C948A000C948A000C948A0070
:100010000C948A000C948A000C948A000C948A0038
:100020000C948A000C948A000C948A000C948A0028
:100030000C948A000C948A000C948A000C948A0018
:100040000C945C040C948A000C942A040C94040410
:100050000C948A000C948A000C948A000C948A00F8
:100060000C948A000C948A000000000023002600F3
:10007000290000000008000201000003040700003E
:1000800000000000000000000000250028002B00F8
:1000900000000000240027002A00040404040404D3
:1000A0000404020202020202030303030303010227
:1000B00004081020408001020408102001020408F6
:1000C0001020A60411241FBECFEFD8E0DEBFCDBFA5
:1000D00012E0A0E0B1E0E4E6FCE002C005900D9281
:1000E000AC39B107D9F723E0ACE9B2E001C01D9209
:1000F000AC35B207E1F710E0C2E6D0E004C02197CA
:10010000FE010E942506C136D107C9F70E94F104FD
:100110000C9430060C94000090E0FC01E255FF4F77
:100120002491FC01E656FF4F8491882399F090E0DA
:10013000880F991FFC01E057FF4FA591B491FC0176
:10014000EA57FF4F859194918FB7F894EC91E22B89
:10015000EC938FBF0895CF92DF92EF92FF920F93AF
:100160001F93CF93DF936C017A018B01C0E0D0E045
:10017000CE15DF0589F0D8016D918D01D601ED9185
:10018000FC910190F081E02DC6010995892B11F4B5
:100190007E0102C02196ECCFC701DF91CF911F9164
:1001A0000F91FF90EF90DF90CF900895FC01918D1B
:1001B000828D981761F0828DDF01A80FB11D5D96C9
:1001C0008C91928D9F5F9F73928F90E008958FEF37
:1001D0009FEF0895FC01918D828D981731F0828DEB
:1001E000E80FF11D858D90E008958FEF9FEF089542
:1001F000FC01918D228D892F90E0805C9F4F821BA6
:1002000091098F739927089587EA92E00E94F80078
:1002100021E0892B09F420E0822F0895FC01848DD0
:10022000DF01A80FB11DA35ABF4F2C91848D90E020
:1002300001968F739927848FA689B7892C93A089FB
:10024000B1898C9180648C93938D848D981306C0B2
:100250000288F389E02D80818F7D80830895EF925D
:10026000FF920F931F93CF93DF93EC0181E0888F70
:100270009B8D8C8D981305C0E889F989808185FD57
:1002800024C0F62E0B8D10E00F5F1F4F0F73112748
:10029000E02E8C8DE8120CC00FB607FCFACFE8896F
:1002A000F989808185FFF5CFCE010E940E01F1CF43
:1002B0008B8DFE01E80FF11DE35AFF4FF0820B8F8B
:1002C000EA89FB898081806207C0EE89FF896083AB
:1002D000E889F98980818064808381E090E0DF9102
:1002E000CF911F910F91FF90EF900895CF93DF93DF
:1002F000EC01888D8823C9F0EA89FB89808185FD1E
:1003000005C0A889B9898C9186FD0FC00FB607FC7E
:10031000F5CF808185FFF2CFA889B9898C9185FFBF
:10032000EDCFCE010E940E01E7CFDF91CF9108956E
:1003300080E090E0892B29F00E94040181110C9447
:1003400000000895833081F028F4813099F08230E4
:10035000A1F008958730A9F08830B9F08430D1F445
:10036000809180008F7D03C0809180008F77809383
:100370008000089584B58F7702C084B58F7D84BDD9
:1003800008958091B0008F7703C08091B0008F7D79
:100390008093B00008951F93CF93DF93282F30E010
:1003A000F901EE58FF4F8491F901E255FF4FD491C6
:1003B000F901E656FF4FC491CC23C9F0162F8111E5
:1003C0000E94A201EC2FF0E0EE0FFF1FEA57FF4F53
:1003D000A591B4918FB7F894111105C09C91ED2FA0
:1003E000E095E92302C0EC91ED2BEC938FBFDF91F8
:1003F000CF911F9108953FB7F8948091A1029091F9
:10040000A202A091A302B091A40226B5A89B05C0A8
:100410002F3F19F00196A11DB11D3FBFBA2FA92F83
:10042000982F8827820F911DA11DB11DBC01CD0100
:1004300042E0660F771F881F991F4A95D1F70895EC
:100440008F929F92AF92BF92CF92DF92EF92FF92E4
:100450000E94FB014B015C0188EEC82E83E0D82E80
:10046000E12CF12C0E94FB01DC01CB0188199909D8
:10047000AA09BB09883E9340A105B10558F021E0C7
:10048000C21AD108E108F10888EE880E83E0981EB0
:10049000A11CB11CC114D104E104F10419F7FF90AF
:1004A000EF90DF90CF90BF90AF909F908F90089586
:1004B000CF93DF93EC0160E08E810E94CB0161E07D
:1004C0008E810E94CB0160E08E810E94CB018BE87F
:1004D00091E00197F1F7DF91CF910895CF92DF92EC
:1004E000EF92FF920F931F93CF93DF937C016C01E8
:1004F00087E0C80ED11CC0E0D0E0062F10E0B801A4
:100500000C2E02C0759567950A94E2F76170F601AA
:1005100081916F010E94CB012196C430D10579F7FA
:10052000C701DF91CF911F910F91FF90EF90DF9066
:10053000CF900C945802CF92DF92EF92FF920F93DC
:100540001F93CF93DF93EC01F62E642F8C810E94D2
:10055000CB018D818F3F19F060E00E94CB018F8528
:100560000F2D10E084FF25C06E0187E0C80ED11C5E
:10057000E12CF12CB8010E2C02C0759567950A94F8
:10058000E2F76170F60181916F010E94CB01FFEFEC
:10059000EF1AFF0A88E0E816F10461F7CE01DF9157
:1005A000CF911F910F91FF90EF90DF90CF900C941F
:1005B0005802B80184E0759567958A95E1F7CE01F8
:1005C0000E946E026F2DCE01DF91CF911F910F918E
:1005D000FF90EF90DF90CF900C946E0241E00E946C
:1005E0009B0281E090E0089540E00C949B028430EF
:1005F00008F083E090915703891710F08FEF890F6F
:10060000E82FF0E0EC5BFC4F6489606884E493E0E1
:100610000C94F40261E00E94F4028BE39FE10197E5
:10062000F1F70895EF92FF920F931F93CF93DF930B
:10063000EC01623018F08F8588608F876B8B1C8A85
:1006400080E48D8B80E18E8B80E58F8B8C810E9486
:100650008C008D818F3F11F00E948C008E810E9452
:100660008C007E0187E0E80EF11C00E010E08F8531
:1006700084FD03C084E090E002C088E090E00817A9
:10068000190744F4F70181917F010E948C000F5FEC
:100690001F4FEDCF8BE39DE00197F1F760E08C8178
:1006A0000E94CB0160E08E810E94CB018D818F3F43
:1006B00019F060E00E94CB016F8564FD1DC063E00E
:1006C000CE010E946E020BE416E4C8010197F1F717
:1006D00063E0CE010E946E02C8010197F1F763E06A
:1006E000CE010E946E0283E592E00197F1F762E08D
:1006F000CE010E946E0216C06062CE010E94F4021A
:100700008BE496E40197F1F76F856062CE010E9459
:10071000F40283E592E00197F1F76F856062CE0104
:100720000E94F4026F856062CE010E94F40284E0B0
:10073000888B6CE0CE010E94F402CE010E940A0375
:1007400082E0898B66E0CE01DF91CF911F910F91FE
:10075000FF90EF900C94F402CF93DF93EFE7F0E07B
:100760008491EBEBF0E0D491E7EAF0E0C491CC2384
:1007700091F081110E94A201EC2FF0E0EE0FFF1F1B
:10078000E859FF4FA591B491EC91ED2381E090E001
:1007900021F480E002C080E090E08093A502909375
:1007A000A602DF91CF9108950E942B066115710575
:1007B00079F0FB0101900020E9F73197AF01461B6A
:1007C000570BDC01ED91FC910280F381E02D09943F
:1007D00080E090E00895BC0184E493E00C94D6039B
:1007E0000F931F93CF93DF93EC010E94D6038C01EC
:1007F00068E171E0CE010E94D603800F911FDF9166
:10080000CF911F910F9108951F920F920FB60F92E3
:1008100011242F933F934F935F936F937F938F9305
:100820009F93AF93BF93EF93FF9387EA92E00E9469
:100830000E01FF91EF91BF91AF919F918F917F91A9
:100840006F915F914F913F912F910F900FBE0F903D
:100850001F9018951F920F920FB60F9211242F938D
:100860008F939F93EF93FF93E091B702F091B802BB
:100870008081E091BD02F091BE0282FD12C09081A4
:100880008091C0028F5F8F732091C102821751F057
:10089000E091C002F0E0E955FD4F958F8093C002D2
:1008A00001C08081FF91EF919F918F912F910F90C7
:1008B0000FBE0F901F9018951F920F920FB60F92B8
:1008C00011242F933F938F939F93AF93BF93809166
:1008D0009D0290919E02A0919F02B091A002309142
:1008E0009C0223E0230F2D3720F40196A11DB11D9A
:1008F00005C026E8230F0296A11DB11D20939C027E
:1009000080939D0290939E02A0939F02B093A002B9
:100910008091A1029091A202A091A302B091A402A1
:100920000196A11DB11D8093A1029093A202A093F4
:10093000A302B093A402BF91AF919F918F913F9179
:100940002F910F900FBE0F901F901895E7EAF2E0DD
:100950001382128288EE93E0A0E0B0E08483958356
:10096000A683B78384E091E09183808385EC90E057
:100970009587848784EC90E09787868780EC90E069
:10098000918B808B81EC90E0938B828B82EC90E05A
:10099000958B848B86EC90E0978B868B118E128ED4
:1009A000138E148EE4E4F3E01382128284E191E06A
:1009B000918380838CE084838FEF85838BE08683B3
:1009C00085E0878384E0808783E0818782E0828777
:1009D0001386148615861686178661E0CF010C945F
:1009E0001203789484B5826084BD84B5816084BD2F
:1009F00085B5826085BD85B5816085BD80916E00BD
:100A0000816080936E0010928100809181008260ED
:100A1000809381008091810081608093810080912A
:100A200080008160809380008091B1008460809319
:100A3000B1008091B00081608093B00080917A0015
:100A4000846080937A0080917A00826080937A003B
:100A500080917A00816080937A0080917A0080682A
:100A600080937A001092C1008DE00E948C00E0918A
:100A7000B702F091B80282E08083E091B302F09176
:100A8000B4021082E091B502F091B6028FEC80833F
:100A90001092BF02E091BB02F091BC0286E080831D
:100AA000E091B902F091BA02808180618083E09187
:100AB000B902F091BA02808188608083E091B90226
:100AC000F091BA02808180688083E091B902F09150
:100AD000BA0280818F7D808362E084E493E00E948B
:100AE000120380E00E94F7026BE171E084E493E07E
:100AF0000E94F00381E00E94F70287E291E00E94E9
:100B0000EB030E94200284E493E00E940A0380E049
:100B10000E94F70284E391E00E94EB0381E00E94CF
:100B2000F70289E491E00E94EB0387EA92E00E94D9
:100B3000F800181619060CF085C084E493E00E94B2
:100B40000A0380E00E94F7028AE591E00E94EB032D
:100B50000E94200287EA92E00E94D600803359F575
:100B60000E94AC038091A5029091A602892B99F472
:100B700080E00E94F7028BE691E00E94EB0381E0A7
:100B80000E94F70289E491E00E94EB030E94200298
:100B90006CE771E053C060E08DE00E94CB0180E023
:100BA0000E94F70285EA91E00E94EB030E94200276
:100BB00066EB71E043C0813359F50E94AC0380912C
:100BC000A5029091A602892B81F461E08DE00E943C
:100BD000CB0180E00E94F70283EE91E00E94EB03DC
:100BE0000E94200264EF71E029C080E00E94F702B9
:100BF00080E292E00E94EB0381E00E94F70280E332
:100C000092E00E94EB030E94200261E472E016C0B1
:100C100084E493E00E940A0380E00E94F7028CE6DD
:100C200092E00E94EB0381E00E94F70280E992E0EB
:100C30000E94EB030E9420026CE772E087EA92E0D8
:100C40000E94F0030E94980170CFEE0FFF1F0590E5
:100C5000F491E02D099481E090E0F8940C94300632
:040C6000F894FFCF36
:100C6400000000002F01AB00F800D600EA00760176
:100C740000000000EE02AB000D0A005365747469B5
:100C84006E6720534D530052656365697665204D48
:100C94006F64650047656E657261746F7220697375
:100CA400204F66662E2E2E20005465787420312045
:100CB400746F207475726E4F4E004E657720534DDD
:100CC400532052656365697665640047656E2E201E
:100CD4006F666620616C72656164790047656E6554
:100CE4007261746F7220616C7265616479206F66E1
:100CF400662E2054657874203120746F20747572C8
:100D04006E206F6E0047656E207377697463686543
:100D140064204F46460047656E657261746F7220A9
:100D2400686173206265656E2073776974636865B2
:100D340064204F4646207375636365737366756CF0
:100D44006C790047656E2073776974636865642005
:100D54004F4E200047656E657261746F7220686142
:100D640073206265656E20737769746368656420B7
:100D74004F4E207375636365737366756C6C79008D
:100D840047656E2E204F4E20616C72656164790058
:100D9400547874203020746F207475726E4F4646F8
:100DA4000047656E657261746F7220616C72656173
:100DB4006479204F4E2E2054657874203120746F4E
:100DC40020737769746368204F464600494E564144
:100DD4004C4944204D45535341474500494E5641E3
:100DE4004C494420534D532E20506C65617365204B
:0C0DF400546578742030206F72203100AC
:00000001FF
